{
  "contractName": "TestV2",
  "abi": [
    {
      "inputs": [],
      "payable": false,
      "stateMutability": "nonpayable",
      "type": "constructor"
    },
    {
      "anonymous": false,
      "inputs": [
        {
          "indexed": false,
          "name": "value",
          "type": "uint256"
        }
      ],
      "name": "SetValue",
      "type": "event"
    },
    {
      "anonymous": false,
      "inputs": [
        {
          "indexed": false,
          "name": "multi",
          "type": "uint256"
        }
      ],
      "name": "SetMultiValue",
      "type": "event"
    },
    {
      "constant": false,
      "inputs": [],
      "name": "init",
      "outputs": [],
      "payable": false,
      "stateMutability": "nonpayable",
      "type": "function"
    },
    {
      "constant": false,
      "inputs": [
        {
          "name": "_multi",
          "type": "uint256"
        }
      ],
      "name": "setMultiValue",
      "outputs": [],
      "payable": false,
      "stateMutability": "nonpayable",
      "type": "function"
    },
    {
      "constant": false,
      "inputs": [
        {
          "name": "_value",
          "type": "uint256"
        }
      ],
      "name": "setValue",
      "outputs": [],
      "payable": false,
      "stateMutability": "nonpayable",
      "type": "function"
    },
    {
      "constant": true,
      "inputs": [],
      "name": "calcValue",
      "outputs": [
        {
          "name": "ret",
          "type": "uint256"
        }
      ],
      "payable": false,
      "stateMutability": "view",
      "type": "function"
    },
    {
      "constant": true,
      "inputs": [],
      "name": "getMulti",
      "outputs": [
        {
          "name": "ret",
          "type": "uint256"
        }
      ],
      "payable": false,
      "stateMutability": "view",
      "type": "function"
    }
  ],
  "bytecode": "0x608060405234801561001057600080fd5b5061002861002d640100000000026401000000009004565b61003f565b60016000819055506000600181905550565b6102ab8061004e6000396000f3fe608060405234801561001057600080fd5b5060043610610074576000357c01000000000000000000000000000000000000000000000000000000009004806355241077146100795780635f7d7516146100a7578063dd3c9854146100d5578063e1c7392a146100f3578063f3c66284146100fd575b600080fd5b6100a56004803603602081101561008f57600080fd5b810190808035906020019092919050505061011b565b005b6100d3600480360360208110156100bd57600080fd5b810190808035906020019092919050505061015e565b005b6100dd6101a2565b6040518082815260200191505060405180910390f35b6100fb610264565b005b610105610276565b6040518082815260200191505060405180910390f35b806001819055507fed8b07065ef0737c0cfb1bf1e23ccc881d797ec9804f74230a360b84982938ab6001546040518082815260200191505060405180910390a150565b600281026000819055507fb03d1c32084198c13732e46d3e173999e5311cd931aff5ccea60d0bf63227a8c816040518082815260200191505060405180910390a150565b60008073__TLib__________________________________63771602f76001546001546040518363ffffffff167c0100000000000000000000000000000000000000000000000000000000028152600401808381526020018281526020019250505060206040518083038186803b15801561021c57600080fd5b505af4158015610230573d6000803e3d6000fd5b505050506040513d602081101561024657600080fd5b81019080805190602001909291905050509050600054810291505090565b60016000819055506000600181905550565b6000805490509056fea165627a7a723058203fe45f695be0b546801bd99a0a8417305e107eece39898cd5890a61c10f505520029",
  "source": "pragma solidity >=0.4.21 <0.6.0;\r\n\r\nimport \"./TLib.sol\";\r\n\r\ncontract TestV2 {\r\n\r\n    event SetValue(uint value);\r\n    event SetMultiValue(uint multi);\r\n\r\n    uint multi;\r\n    uint value;\r\n\r\n    constructor () public {\r\n        init();\r\n    }\r\n\r\n    function init() public {\r\n        multi = 1;\r\n        value = 0;\r\n    }\r\n\r\n    function setMultiValue(uint _multi) public {\r\n        multi = _multi*2; \r\n        emit SetMultiValue(_multi);\r\n    }\r\n\r\n    function setValue(uint _value) public {\r\n        //require(_value > 0);\r\n        value = _value;\r\n        emit SetValue(value);\r\n    }\r\n\r\n    function calcValue() public view returns(uint ret) {\r\n        uint added = TLib.add(value,value);\r\n        return added * multi;\r\n    }\r\n\r\n    function getMulti() public view returns (uint ret) {\r\n        return multi;\r\n    }\r\n}",
  "sourcePath": "D:/truffle/sol-test/contracts/TestV2.sol",
  "compiler": {
    "name": "solc",
    "version": "0.5.7+commit.6da8b019.Emscripten.clang"
  },
  "schemaVersion": "3.0.6",
  "updatedAt": "2019-04-09T09:31:32.194Z",
  "devdoc": {
    "methods": {}
  },
  "userdoc": {
    "methods": {}
  }
}