{
  "contractName": "Test",
  "abi": [
    {
      "constant": true,
      "inputs": [],
      "name": "value",
      "outputs": [
        {
          "name": "",
          "type": "uint256"
        }
      ],
      "payable": false,
      "stateMutability": "view",
      "type": "function",
      "signature": "0x3fa4f245"
    },
    {
      "constant": false,
      "inputs": [
        {
          "name": "_value",
          "type": "uint256"
        }
      ],
      "name": "setValue",
      "outputs": [],
      "payable": false,
      "stateMutability": "nonpayable",
      "type": "function",
      "signature": "0x55241077"
    },
    {
      "constant": true,
      "inputs": [],
      "name": "getValue",
      "outputs": [
        {
          "name": "",
          "type": "uint256"
        }
      ],
      "payable": false,
      "stateMutability": "view",
      "type": "function",
      "signature": "0x20965255"
    }
  ],
  "bytecode": "0x608060405234801561001057600080fd5b50610124806100206000396000f3fe6080604052600436106053576000357c0100000000000000000000000000000000000000000000000000000000900463ffffffff168063209652551460585780633fa4f245146080578063552410771460a8575b600080fd5b348015606357600080fd5b50606a60df565b6040518082815260200191505060405180910390f35b348015608b57600080fd5b50609260e8565b6040518082815260200191505060405180910390f35b34801560b357600080fd5b5060dd6004803603602081101560c857600080fd5b810190808035906020019092919050505060ee565b005b60008054905090565b60005481565b806000819055505056fea165627a7a7230582086ec60cac193e1c8635646faf9b6db15ee81857c2a873ba7e0fd9775b59403530029",
  "source": "pragma solidity >=0.4.21 <0.6.0;\r\n\r\ncontract Test {\r\n\r\n    uint public value;\r\n\r\n    function setValue(uint _value) public {\r\n        value = _value;\r\n    }\r\n\r\n    function getValue() public view returns(uint) {\r\n        return value;\r\n    }\r\n}",
  "sourcePath": "D:/truffle/token/contracts/Test.sol",
  "compiler": {
    "name": "solc",
    "version": "0.5.0+commit.1d4f565a.Emscripten.clang"
  },
  "schemaVersion": "3.0.6",
  "updatedAt": "2019-04-04T09:14:18.416Z",
  "devdoc": {
    "methods": {}
  },
  "userdoc": {
    "methods": {}
  }
}