{
  "contractName": "TestSingle",
  "abi": [
    {
      "constant": false,
      "inputs": [],
      "name": "renounceOwnership",
      "outputs": [],
      "payable": false,
      "stateMutability": "nonpayable",
      "type": "function",
      "signature": "0x715018a6"
    },
    {
      "constant": true,
      "inputs": [],
      "name": "owner",
      "outputs": [
        {
          "name": "",
          "type": "address"
        }
      ],
      "payable": false,
      "stateMutability": "view",
      "type": "function",
      "signature": "0x8da5cb5b"
    },
    {
      "constant": true,
      "inputs": [],
      "name": "isOwner",
      "outputs": [
        {
          "name": "",
          "type": "bool"
        }
      ],
      "payable": false,
      "stateMutability": "view",
      "type": "function",
      "signature": "0x8f32d59b"
    },
    {
      "constant": false,
      "inputs": [
        {
          "name": "newOwner",
          "type": "address"
        }
      ],
      "name": "transferOwnership",
      "outputs": [],
      "payable": false,
      "stateMutability": "nonpayable",
      "type": "function",
      "signature": "0xf2fde38b"
    },
    {
      "inputs": [],
      "payable": false,
      "stateMutability": "nonpayable",
      "type": "constructor",
      "signature": "constructor"
    },
    {
      "anonymous": false,
      "inputs": [
        {
          "indexed": false,
          "name": "value",
          "type": "uint256"
        }
      ],
      "name": "SetValue",
      "type": "event",
      "signature": "0xed8b07065ef0737c0cfb1bf1e23ccc881d797ec9804f74230a360b84982938ab"
    },
    {
      "anonymous": false,
      "inputs": [
        {
          "indexed": false,
          "name": "multi",
          "type": "uint256"
        }
      ],
      "name": "SetMultiValue",
      "type": "event",
      "signature": "0xb03d1c32084198c13732e46d3e173999e5311cd931aff5ccea60d0bf63227a8c"
    },
    {
      "anonymous": false,
      "inputs": [
        {
          "indexed": true,
          "name": "previousOwner",
          "type": "address"
        },
        {
          "indexed": true,
          "name": "newOwner",
          "type": "address"
        }
      ],
      "name": "OwnershipTransferred",
      "type": "event",
      "signature": "0x8be0079c531659141344cd1fd0a4f28419497f9722a3daafe3b4186f6b6457e0"
    },
    {
      "constant": false,
      "inputs": [
        {
          "name": "_multi",
          "type": "uint256"
        }
      ],
      "name": "setMultiValue",
      "outputs": [],
      "payable": false,
      "stateMutability": "nonpayable",
      "type": "function",
      "signature": "0x5f7d7516"
    },
    {
      "constant": false,
      "inputs": [
        {
          "name": "_value",
          "type": "uint256"
        }
      ],
      "name": "setValue",
      "outputs": [],
      "payable": false,
      "stateMutability": "nonpayable",
      "type": "function",
      "signature": "0x55241077"
    },
    {
      "constant": true,
      "inputs": [],
      "name": "calcValue",
      "outputs": [
        {
          "name": "ret",
          "type": "uint256"
        }
      ],
      "payable": false,
      "stateMutability": "view",
      "type": "function",
      "signature": "0xdd3c9854"
    },
    {
      "constant": true,
      "inputs": [],
      "name": "getMulti",
      "outputs": [
        {
          "name": "ret",
          "type": "uint256"
        }
      ],
      "payable": false,
      "stateMutability": "view",
      "type": "function",
      "signature": "0xf3c66284"
    }
  ],
  "bytecode": "0x608060405260018055600060025534801561001957600080fd5b50336000806101000a81548173ffffffffffffffffffffffffffffffffffffffff021916908373ffffffffffffffffffffffffffffffffffffffff1602179055506000809054906101000a900473ffffffffffffffffffffffffffffffffffffffff1673ffffffffffffffffffffffffffffffffffffffff16600073ffffffffffffffffffffffffffffffffffffffff167f8be0079c531659141344cd1fd0a4f28419497f9722a3daafe3b4186f6b6457e060405160405180910390a36105ee806100e56000396000f3fe608060405234801561001057600080fd5b50600436106100a5576000357c0100000000000000000000000000000000000000000000000000000000900480638f32d59b116100785780638f32d59b1461015a578063dd3c98541461017c578063f2fde38b1461019a578063f3c66284146101de576100a5565b806355241077146100aa5780635f7d7516146100d8578063715018a6146101065780638da5cb5b14610110575b600080fd5b6100d6600480360360208110156100c057600080fd5b81019080803590602001909291905050506101fc565b005b610104600480360360208110156100ee57600080fd5b810190808035906020019092919050505061023f565b005b61010e610291565b005b610118610361565b604051808273ffffffffffffffffffffffffffffffffffffffff1673ffffffffffffffffffffffffffffffffffffffff16815260200191505060405180910390f35b61016261038a565b604051808215151515815260200191505060405180910390f35b6101846103e1565b6040518082815260200191505060405180910390f35b6101dc600480360360208110156101b057600080fd5b81019080803573ffffffffffffffffffffffffffffffffffffffff1690602001909291905050506104a3565b005b6101e66104c0565b6040518082815260200191505060405180910390f35b806002819055507fed8b07065ef0737c0cfb1bf1e23ccc881d797ec9804f74230a360b84982938ab6002546040518082815260200191505060405180910390a150565b61024761038a565b61025057600080fd5b806001819055507fb03d1c32084198c13732e46d3e173999e5311cd931aff5ccea60d0bf63227a8c816040518082815260200191505060405180910390a150565b61029961038a565b6102a257600080fd5b600073ffffffffffffffffffffffffffffffffffffffff166000809054906101000a900473ffffffffffffffffffffffffffffffffffffffff1673ffffffffffffffffffffffffffffffffffffffff167f8be0079c531659141344cd1fd0a4f28419497f9722a3daafe3b4186f6b6457e060405160405180910390a360008060006101000a81548173ffffffffffffffffffffffffffffffffffffffff021916908373ffffffffffffffffffffffffffffffffffffffff160217905550565b60008060009054906101000a900473ffffffffffffffffffffffffffffffffffffffff16905090565b60008060009054906101000a900473ffffffffffffffffffffffffffffffffffffffff1673ffffffffffffffffffffffffffffffffffffffff163373ffffffffffffffffffffffffffffffffffffffff1614905090565b60008073__TLib__________________________________63771602f76002546002546040518363ffffffff167c0100000000000000000000000000000000000000000000000000000000028152600401808381526020018281526020019250505060206040518083038186803b15801561045b57600080fd5b505af415801561046f573d6000803e3d6000fd5b505050506040513d602081101561048557600080fd5b81019080805190602001909291905050509050600154810291505090565b6104ab61038a565b6104b457600080fd5b6104bd816104ca565b50565b6000600154905090565b600073ffffffffffffffffffffffffffffffffffffffff168173ffffffffffffffffffffffffffffffffffffffff16141561050457600080fd5b8073ffffffffffffffffffffffffffffffffffffffff166000809054906101000a900473ffffffffffffffffffffffffffffffffffffffff1673ffffffffffffffffffffffffffffffffffffffff167f8be0079c531659141344cd1fd0a4f28419497f9722a3daafe3b4186f6b6457e060405160405180910390a3806000806101000a81548173ffffffffffffffffffffffffffffffffffffffff021916908373ffffffffffffffffffffffffffffffffffffffff1602179055505056fea165627a7a723058208376e9a869bdd50fae3f0a5f5f244108a6217818b5022e2332ae971e2abe432a0029",
  "source": "pragma solidity >=0.4.21 <0.6.0;\r\n\r\nimport \"./TLib.sol\";\r\nimport \"openzeppelin-solidity/contracts/ownership/Ownable.sol\";\r\n\r\ncontract TestSingle is Ownable {\r\n\r\n    event SetValue(uint value);\r\n    event SetMultiValue(uint multi);\r\n\r\n    uint multi = 1;\r\n    uint value = 0;\r\n\r\n    constructor () public {\r\n\r\n    }\r\n\r\n    function setMultiValue(uint _multi) public onlyOwner {\r\n        multi = _multi; \r\n        emit SetMultiValue(_multi);\r\n    }\r\n\r\n    function setValue(uint _value) public {\r\n        //require(_value > 0);\r\n        value = _value;\r\n        emit SetValue(value);\r\n    }\r\n\r\n    function calcValue() public view returns(uint ret) {\r\n        uint added = TLib.add(value,value);\r\n        return added * multi;\r\n    }\r\n\r\n    function getMulti() public view returns (uint ret) {\r\n        return multi;\r\n    }\r\n}",
  "sourcePath": "D:/truffle/sol-test/contracts/TestSingle.sol",
  "compiler": {
    "name": "solc",
    "version": "0.5.7+commit.6da8b019.Emscripten.clang"
  },
  "schemaVersion": "3.0.6",
  "updatedAt": "2019-04-09T09:36:22.059Z",
  "devdoc": {
    "methods": {
      "isOwner()": {
        "return": "true if `msg.sender` is the owner of the contract."
      },
      "owner()": {
        "return": "the address of the owner."
      },
      "renounceOwnership()": {
        "details": "Allows the current owner to relinquish control of the contract. It will not be possible to call the functions with the `onlyOwner` modifier anymore."
      },
      "transferOwnership(address)": {
        "details": "Allows the current owner to transfer control of the contract to a newOwner.",
        "params": {
          "newOwner": "The address to transfer ownership to."
        }
      }
    }
  },
  "userdoc": {
    "methods": {
      "renounceOwnership()": {
        "notice": "Renouncing ownership will leave the contract without an owner, thereby removing any functionality that is only available to the owner."
      }
    }
  }
}