{
  "contractName": "Test",
  "abi": [
    {
      "constant": true,
      "inputs": [],
      "name": "value",
      "outputs": [
        {
          "name": "",
          "type": "uint256"
        }
      ],
      "payable": false,
      "stateMutability": "view",
      "type": "function",
      "signature": "0x3fa4f245"
    },
    {
      "anonymous": false,
      "inputs": [
        {
          "indexed": false,
          "name": "value",
          "type": "uint256"
        }
      ],
      "name": "SetValue",
      "type": "event",
      "signature": "0xed8b07065ef0737c0cfb1bf1e23ccc881d797ec9804f74230a360b84982938ab"
    },
    {
      "constant": false,
      "inputs": [
        {
          "name": "_value",
          "type": "uint256"
        }
      ],
      "name": "setValue",
      "outputs": [],
      "payable": false,
      "stateMutability": "nonpayable",
      "type": "function",
      "signature": "0x55241077"
    },
    {
      "constant": true,
      "inputs": [],
      "name": "getValue",
      "outputs": [
        {
          "name": "",
          "type": "uint256"
        }
      ],
      "payable": false,
      "stateMutability": "view",
      "type": "function",
      "signature": "0x20965255"
    }
  ],
  "bytecode": "0x608060405234801561001057600080fd5b5061022b806100206000396000f3fe608060405260043610610057576000357c0100000000000000000000000000000000000000000000000000000000900463ffffffff168063209652551461005c5780633fa4f2451461008757806355241077146100b2575b600080fd5b34801561006857600080fd5b506100716100ed565b6040518082815260200191505060405180910390f35b34801561009357600080fd5b5061009c6101a6565b6040518082815260200191505060405180910390f35b3480156100be57600080fd5b506100eb600480360360208110156100d557600080fd5b81019080803590602001909291905050506101ac565b005b600073__TLib__________________________________63771602f76000546000546040518363ffffffff167c0100000000000000000000000000000000000000000000000000000000028152600401808381526020018281526020019250505060206040518083038186803b15801561016657600080fd5b505af415801561017a573d6000803e3d6000fd5b505050506040513d602081101561019057600080fd5b8101908080519060200190929190505050905090565b60005481565b6103e8811115156101bc57600080fd5b806000819055507fed8b07065ef0737c0cfb1bf1e23ccc881d797ec9804f74230a360b84982938ab6000546040518082815260200191505060405180910390a15056fea165627a7a7230582001386a1305d039fc88e45dd69a14ec34695b128f5d2e23aa4e699c2d24bba9230029",
  "source": "pragma solidity >=0.4.21 <0.6.0;\r\n\r\nimport \"./TLib.sol\";\r\n\r\ncontract Test {\r\n\r\n    event SetValue(uint value);\r\n\r\n    uint public value;\r\n\r\n    function setValue(uint _value) public {\r\n        require(_value > 1000);\r\n        value = _value;\r\n        emit SetValue(value);\r\n    }\r\n\r\n    function getValue() public view returns(uint) {\r\n        return TLib.add(value,value);\r\n    }\r\n}",
  "sourcePath": "D:/truffle/sol-test/contracts/Test.sol",
  "compiler": {
    "name": "solc",
    "version": "0.5.0+commit.1d4f565a.Emscripten.clang"
  },
  "schemaVersion": "3.0.6",
  "updatedAt": "2019-04-05T07:18:37.124Z",
  "devdoc": {
    "methods": {}
  },
  "userdoc": {
    "methods": {}
  }
}