{
  "contractName": "TestProxy",
  "abi": [
    {
      "inputs": [
        {
          "name": "_address",
          "type": "address"
        }
      ],
      "payable": false,
      "stateMutability": "nonpayable",
      "type": "constructor"
    },
    {
      "payable": true,
      "stateMutability": "payable",
      "type": "fallback"
    },
    {
      "constant": false,
      "inputs": [
        {
          "name": "_address",
          "type": "address"
        }
      ],
      "name": "setTargetAddress",
      "outputs": [],
      "payable": false,
      "stateMutability": "nonpayable",
      "type": "function"
    }
  ],
  "bytecode": "0x608060405234801561001057600080fd5b5060405160208061033f8339810180604052602081101561003057600080fd5b81019080805190602001909291905050506100598161005f640100000000026401000000009004565b50610145565b600073ffffffffffffffffffffffffffffffffffffffff168173ffffffffffffffffffffffffffffffffffffffff161415610102576040517f08c379a00000000000000000000000000000000000000000000000000000000081526004018080602001828103825260108152602001807f616464726573732069732030783021210000000000000000000000000000000081525060200191505060405180910390fd5b806000806101000a81548173ffffffffffffffffffffffffffffffffffffffff021916908373ffffffffffffffffffffffffffffffffffffffff16021790555050565b6101eb806101546000396000f3fe60806040526004361061003b576000357c010000000000000000000000000000000000000000000000000000000090048063fd8b237014610088575b60008060009054906101000a900473ffffffffffffffffffffffffffffffffffffffff16905060405136600082376000803683855af43d806000843e8160008114610084578184f35b8184fd5b34801561009457600080fd5b506100d7600480360360208110156100ab57600080fd5b81019080803573ffffffffffffffffffffffffffffffffffffffff1690602001909291905050506100d9565b005b600073ffffffffffffffffffffffffffffffffffffffff168173ffffffffffffffffffffffffffffffffffffffff16141561017c576040517f08c379a00000000000000000000000000000000000000000000000000000000081526004018080602001828103825260108152602001807f616464726573732069732030783021210000000000000000000000000000000081525060200191505060405180910390fd5b806000806101000a81548173ffffffffffffffffffffffffffffffffffffffff021916908373ffffffffffffffffffffffffffffffffffffffff1602179055505056fea165627a7a7230582031bb2f680ae297639bb59578d6033964a87bb294f82b9923888c0b275b47cbda0029",
  "source": "pragma solidity >=0.4.21 <0.6.0;\r\n\r\ncontract TestProxy {\r\n\r\n    address private targetAddress;\r\n\r\n    constructor(address _address) public {\r\n        setTargetAddress(_address);\r\n    }\r\n\r\n    function setTargetAddress(address _address) public {\r\n        require(_address != address(0), \"address is 0x0!!\");\r\n        targetAddress = _address;\r\n    }\r\n\r\n    function () external payable {\r\n        address contractAddr = targetAddress;\r\n        assembly {\r\n            let ptr := mload(0x40)\r\n            calldatacopy(ptr, 0, calldatasize)\r\n            let result := delegatecall(gas, contractAddr, ptr, calldatasize, 0, 0)\r\n            let size := returndatasize\r\n            returndatacopy(ptr, 0, size)\r\n\r\n            switch result\r\n            case 0 { revert(ptr, size) }\r\n            default { return(ptr, size) }\r\n        }\r\n    }\r\n}",
  "sourcePath": "D:/truffle/sol-test/contracts/TestProxy.sol",
  "compiler": {
    "name": "solc",
    "version": "0.5.7+commit.6da8b019.Emscripten.clang"
  },
  "schemaVersion": "3.0.6",
  "updatedAt": "2019-04-09T09:31:32.193Z",
  "devdoc": {
    "methods": {}
  },
  "userdoc": {
    "methods": {}
  }
}