{
  "contractName": "TestProxy",
  "abi": [
    {
      "inputs": [
        {
          "name": "_address",
          "type": "address"
        }
      ],
      "payable": false,
      "stateMutability": "nonpayable",
      "type": "constructor",
      "signature": "constructor"
    },
    {
      "payable": true,
      "stateMutability": "payable",
      "type": "fallback"
    },
    {
      "anonymous": false,
      "inputs": [
        {
          "indexed": false,
          "name": "owner",
          "type": "address"
        },
        {
          "indexed": false,
          "name": "sender",
          "type": "address"
        }
      ],
      "name": "OnlyOwner",
      "type": "event",
      "signature": "0xa3ee740f2da94db23b70498c1801d3e542be1429ca6d115d1328c142c6717da3"
    },
    {
      "constant": false,
      "inputs": [
        {
          "name": "_address",
          "type": "address"
        }
      ],
      "name": "setTargetAddress",
      "outputs": [],
      "payable": false,
      "stateMutability": "nonpayable",
      "type": "function",
      "signature": "0xfd8b2370"
    }
  ],
  "bytecode": "0x608060405234801561001057600080fd5b506040516020806104f68339810180604052602081101561003057600080fd5b810190808051906020019092919050505033600160006101000a81548173ffffffffffffffffffffffffffffffffffffffff021916908373ffffffffffffffffffffffffffffffffffffffff16021790555061009a816100a0640100000000026401000000009004565b50610241565b7fa3ee740f2da94db23b70498c1801d3e542be1429ca6d115d1328c142c6717da333600160009054906101000a900473ffffffffffffffffffffffffffffffffffffffff16604051808373ffffffffffffffffffffffffffffffffffffffff1673ffffffffffffffffffffffffffffffffffffffff1681526020018273ffffffffffffffffffffffffffffffffffffffff1673ffffffffffffffffffffffffffffffffffffffff1681526020019250505060405180910390a1600073ffffffffffffffffffffffffffffffffffffffff168173ffffffffffffffffffffffffffffffffffffffff16141515156101fe576040517f08c379a000000000000000000000000000000000000000000000000000000000815260040180806020018281038252600e8152602001807f616464726573732069732030783000000000000000000000000000000000000081525060200191505060405180910390fd5b806000806101000a81548173ffffffffffffffffffffffffffffffffffffffff021916908373ffffffffffffffffffffffffffffffffffffffff16021790555050565b6102a6806102506000396000f3fe60806040526004361061003b576000357c010000000000000000000000000000000000000000000000000000000090048063fd8b237014610088575b60008060009054906101000a900473ffffffffffffffffffffffffffffffffffffffff16905060405136600082376000803683855af43d806000843e8160008114610084578184f35b8184fd5b34801561009457600080fd5b506100d7600480360360208110156100ab57600080fd5b81019080803573ffffffffffffffffffffffffffffffffffffffff1690602001909291905050506100d9565b005b7fa3ee740f2da94db23b70498c1801d3e542be1429ca6d115d1328c142c6717da333600160009054906101000a900473ffffffffffffffffffffffffffffffffffffffff16604051808373ffffffffffffffffffffffffffffffffffffffff1673ffffffffffffffffffffffffffffffffffffffff1681526020018273ffffffffffffffffffffffffffffffffffffffff1673ffffffffffffffffffffffffffffffffffffffff1681526020019250505060405180910390a1600073ffffffffffffffffffffffffffffffffffffffff168173ffffffffffffffffffffffffffffffffffffffff1614151515610237576040517f08c379a000000000000000000000000000000000000000000000000000000000815260040180806020018281038252600e8152602001807f616464726573732069732030783000000000000000000000000000000000000081525060200191505060405180910390fd5b806000806101000a81548173ffffffffffffffffffffffffffffffffffffffff021916908373ffffffffffffffffffffffffffffffffffffffff1602179055505056fea165627a7a72305820e68d346e95a040e3f768bd33939ddd8a39bb75b88d92aeed1b9a89f622a8f7080029",
  "source": "pragma solidity >=0.4.21 <0.6.0;\r\n\r\ncontract TestProxy {\r\n    \r\n    address private targetAddress;\r\n    address private owner;\r\n\r\n    event OnlyOwner(address owner, address sender);\r\n\r\n    constructor(address _address) public {\r\n        owner = msg.sender;\r\n        setTargetAddress(_address);\r\n    }\r\n\r\n    modifier onlyOwner() {\r\n        require(msg.sender == owner, \"owner is differnt !!!\");\r\n        _;\r\n    }\r\n\r\n    function setTargetAddress(address _address) public {\r\n        emit OnlyOwner(msg.sender,owner);\r\n        require(_address != address(0), \"address is 0x0\");\r\n        targetAddress = _address;\r\n    }\r\n\r\n    function () external payable {\r\n        address contractAddr = targetAddress;\r\n        assembly {\r\n            let ptr := mload(0x40)\r\n            calldatacopy(ptr, 0, calldatasize)\r\n            let result := delegatecall(gas, contractAddr, ptr, calldatasize, 0, 0)\r\n            let size := returndatasize\r\n            returndatacopy(ptr, 0, size)\r\n\r\n            switch result\r\n            case 0 { revert(ptr, size) }\r\n            default { return(ptr, size) }\r\n        }\r\n    }\r\n}",
  "sourcePath": "D:/truffle/sol-test/contracts/TestProxy.sol",
  "compiler": {
    "name": "solc",
    "version": "0.5.2+commit.1df8f40c.Emscripten.clang"
  },
  "schemaVersion": "3.0.6",
  "updatedAt": "2019-04-09T03:17:58.183Z",
  "devdoc": {
    "methods": {}
  },
  "userdoc": {
    "methods": {}
  }
}